:020000040000FA
:04000000ADEF1FF051
:103F5A00056A046A036A026A016A0001F1EF1FF046
:103F6A0097800E01CDA1BCEF1FF0BEEF1FF0B6EF98
:103F7A001FF0CD91120097840E01CDA1C7EF1FF05B
:103F8A00C9EF1FF0C1EF1FF0CD91120097860E0105
:103F9A00CDA1D2EF1FF0D4EF1FF0CCEF1FF0CD91DF
:103FAA0092501200979A97880E01CDA1DFEF1FF069
:103FBA00E1EF1FF0D9EF1FF0CD911200066E06C097
:103FCA0092FF0E01CDA1ECEF1FF0EEEF1FF0E6EF2E
:103FDA001FF0CD9197501200B5EC1FF0A00EE3EC44
:103FEA001FF0CBEC1FF0D7EC1FF0C0EC1FF0FCEF7A
:063FFA001FF000EF00F0D3
:020000040020DA
:10000000FF0FFF0FFF0FFF0FFF0FFF0FFF0FFF0F80
:020000040030CA
:0C000000FFFFFFFF9FFFFFFFFFFFFFFF60
:00000001FF
