:020000040000fa
:080000000002040000000000f2
:020000040000fa
:0400080042030000af
:020000040000fa
:04000c0042030000ab
:020000040000fa
:0400100042030000a7
:020000040000fa
:0400140042030000a3
:020000040000fa
:04001800420300009f
:020000040000fa
:04001c00420300009b
:020000040000fa
:040020004203000097
:020000040000fa
:040024004203000093
:020000040000fa
:04002800420300008f
:020000040000fa
:04002c00420300008b
:020000040000fa
:040030004203000087
:020000040000fa
:040034004203000083
:020000040000fa
:04003800420300007f
:020000040000fa
:04003c00420300007b
:020000040000fa
:040040004203000077
:020000040000fa
:040044004203000073
:020000040000fa
:04004800420300006f
:020000040000fa
:04004c00420300006b
:020000040000fa
:04005000c8020000e2
:020000040000fa
:040054004203000063
:020000040000fa
:04005800420300005f
:020000040000fa
:04005c00420300005b
:020000040000fa
:040060004203000057
:020000040000fa
:040064004203000053
:020000040000fa
:04006800420300004f
:020000040000fa
:04006c00420300004b
:020000040000fa
:040070004203000047
:020000040000fa
:040074004203000043
:020000040000fa
:04007800420300003f
:020000040000fa
:04007c00420300003b
:020000040000fa
:040080004203000037
:020000040000fa
:040084004203000033
:020000040000fa
:04008800420300002f
:020000040000fa
:04008c00420300002b
:020000040000fa
:040090004203000027
:020000040000fa
:040094004203000023
:020000040000fa
:04009800420300001f
:020000040000fa
:04009c00420300001b
:020000040000fa
:0400a0004203000017
:020000040000fa
:0400a4004203000013
:020000040000fa
:0400a800420300000f
:020000040000fa
:0400ac00420300000b
:020000040000fa
:0400b0004203000007
:020000040000fa
:0400b4004203000003
:020000040000fa
:0400b80042030000ff
:020000040000fa
:0400bc0042030000fb
:020000040000fa
:0400c00042030000f7
:020000040000fa
:0400c40042030000f3
:020000040000fa
:0400c80042030000ef
:020000040000fa
:0400cc0042030000eb
:020000040000fa
:0400d00042030000e7
:020000040000fa
:0400d40042030000e3
:020000040000fa
:0400d80042030000df
:020000040000fa
:0400dc0042030000db
:020000040000fa
:0400e00042030000d7
:020000040000fa
:0400e40042030000d3
:020000040000fa
:0400e80042030000cf
:020000040000fa
:0400ec0042030000cb
:020000040000fa
:0400f00042030000c7
:020000040000fa
:0400f40042030000c3
:020000040000fa
:0400f80042030000bf
:020000040000fa
:0400fc0042030000bb
:020000040000fa
:0401000042030000b6
:020000040000fa
:0401040042030000b2
:020000040000fa
:0401080042030000ae
:020000040000fa
:04010c0042030000aa
:020000040000fa
:0401100042030000a6
:020000040000fa
:0401140042030000a2
:020000040000fa
:04011800420300009e
:020000040000fa
:04011c00420300009a
:020000040000fa
:040120004203000096
:020000040000fa
:040124004203000092
:020000040000fa
:04012800420300008e
:020000040000fa
:04012c00420300008a
:020000040000fa
:040130004203000086
:020000040000fa
:040134004203000082
:020000040000fa
:04013800420300007e
:020000040000fa
:04013c00420300007a
:020000040000fa
:040140004203000076
:020000040000fa
:040144004203000072
:020000040000fa
:04014800420300006e
:020000040000fa
:0402080042030000ad
:020000040000fa
:04020c0042030000a9
:020000040000fa
:0402100042030000a5
:020000040000fa
:0402140042030000a1
:020000040000fa
:04021800420300009d
:020000040000fa
:04021c004203000099
:020000040000fa
:040220004203000095
:020000040000fa
:040224004203000091
:020000040000fa
:04022800420300008d
:020000040000fa
:04022c004203000089
:020000040000fa
:040230004203000085
:020000040000fa
:040234004203000081
:020000040000fa
:04023800420300007d
:020000040000fa
:04023c004203000079
:020000040000fa
:040240004203000075
:020000040000fa
:040244004203000071
:020000040000fa
:04024800420300006d
:020000040000fa
:04024c004203000069
:020000040000fa
:04025000c8020000e0
:020000040000fa
:040254004203000061
:020000040000fa
:04025800420300005d
:020000040000fa
:04025c004203000059
:020000040000fa
:040260004203000055
:020000040000fa
:040264004203000051
:020000040000fa
:04026800420300004d
:020000040000fa
:04026c004203000049
:020000040000fa
:040270004203000045
:020000040000fa
:040274004203000041
:020000040000fa
:04027800420300003d
:020000040000fa
:04027c004203000039
:020000040000fa
:040280004203000035
:020000040000fa
:040284004203000031
:020000040000fa
:04028800420300002d
:020000040000fa
:04028c004203000029
:020000040000fa
:040290004203000025
:020000040000fa
:040294004203000021
:020000040000fa
:04029800420300001d
:020000040000fa
:04029c004203000019
:020000040000fa
:0402a0004203000015
:020000040000fa
:0402a4004203000011
:020000040000fa
:0402a800420300000d
:020000040000fa
:0402ac004203000009
:020000040000fa
:0402b0004203000005
:020000040000fa
:0402b4004203000001
:020000040000fa
:0402b80042030000fd
:020000040000fa
:0402bc0042030000f9
:020000040000fa
:0402c00042030000f5
:020000040000fa
:0402c40042030000f1
:020000040000fa
:0402c80042030000ed
:020000040000fa
:0402cc0042030000e9
:020000040000fa
:0402d00042030000e5
:020000040000fa
:0402d40042030000e1
:020000040000fa
:0402d80042030000dd
:020000040000fa
:0402dc0042030000d9
:020000040000fa
:0402e00042030000d5
:020000040000fa
:0402e40042030000d1
:020000040000fa
:0402e80042030000cd
:020000040000fa
:0402ec0042030000c9
:020000040000fa
:0402f00042030000c5
:020000040000fa
:0402f40042030000c1
:020000040000fa
:0402f80042030000bd
:020000040000fa
:0402fc0042030000b9
:020000040000fa
:0403000042030000b4
:020000040000fa
:0403040042030000b0
:020000040000fa
:0403080042030000ac
:020000040000fa
:04030c0042030000a8
:020000040000fa
:0403100042030000a4
:020000040000fa
:0403140042030000a0
:020000040000fa
:04031800420300009c
:020000040000fa
:04031c004203000098
:020000040000fa
:040320004203000094
:020000040000fa
:040324004203000090
:020000040000fa
:04032800420300008c
:020000040000fa
:04032c004203000088
:020000040000fa
:040330004203000084
:020000040000fa
:040334004203000080
:020000040000fa
:04033800420300007c
:020000040000fa
:04033c004203000078
:020000040000fa
:040340004203000074
:020000040000fa
:040344004203000070
:020000040000fa
:04034800420300006c
:020000040000fa
:10040000af8120000e7f22000e0188000000000056
:10041000000020000000e000020032000001200087
:100420002002880014000700980007000000e00088
:1004300003003a00406c2000010020000200370059
:100440000000200001002000810f70000100320038
:1004500014000700000020000000e000020032004d
:100460000000020000000000020602000000000080
:100470000040da000000fe004440a90000202000f7
:100480000000e0000300320000002000a00188000e
:100490004440a800000006008a1f78008b1f7800e7
:1004a0000000060091018800800478000000eb0045
:1004b0001a003700e284440032a0b4009905ba0063
:1004c000e284440032a0b4009906ba00e2844400f9
:1004d00032a0b4000006eb00476fde00fd07b2005b
:1004e000636ce10003003a00ebff07000000eb0043
:1004f0000a003700606ce10004003a00005deb0088
:100500008b05e900fdff3e00040037006168e10053
:10051000010032000086eb000b00070019c7ba008b
:100520001905ba000e04e00003003a000a00e000da
:10053000e0ff3a0000000600fe07b2009e018800be
:100540008a047800f5ff3700395dba008b05e900b1
:100550000c003200295dba008b05e900080032006a
:100560000c00e00003003a00e284440032a0b40032
:10057000f5ff370019ddba008b05e900faff3a00f4
:100580008904e800e184440032a0b40000000600c1
:10059000809fbe00821f78000000fa008540a900fd
:1005a0000112800000042000008060000000e000d4
:1005b0000400320040c2a90040128000b040880010
:1005c0002c00370000128000610060000000e00095
:1005d0002800320000c8bf000004e0000d003a000f
:1005e000401280008040880081408000c00a2000c6
:1005f000808f500003003a0000c8bf000040e800b0
:1006000000e8b700804080000000e80080408800db
:100610001200370000c8bf000080fb0041128000bc
:100620000001400000812000000041000108780026
:1006300000c8bf008080fb000181400001812000d4
:1006400081004100910078008100e800814088002d
:100650000040e80000e8b700000000000012800041
:10066000620060000000e000fcff3a008040800073
:10067000401288000080fa004f0178004f00be0051
:10068000004006000040da000000fe000000050007
:020000040000fa
:10069000000000000c000000190000002500000010
:1006a000320000003e0000004b0000005700000038
:1006b00064000000710000007d0000008a0000005e
:1006c00096000000a3000000af000000bc00000086
:1006d000c8000000d5000000e1000000ee000000ae
:1006e000fa000000070100001301000020010000d3
:1006f0002c010000380100004501000051010000fc
:100700005e0100006a010000760100008301000024
:100710008f0100009b010000a8010000b40100004f
:10072000c0010000cc010000d9010000e50100007b
:10073000f1010000fd0100000902000016020000a6
:10074000220200002e0200003a02000046020000d1
:10075000520200005e0200006a0200007602000001
:10076000820200008e0200009a020000a602000031
:10077000b1020000bd020000c9020000d502000065
:10078000e1020000ec020000f80200000403000097
:100790000f0300001b0300002603000032030000cb
:1007a0003d03000049030000540300006003000003
:1007b0006b03000076030000820300008d0300003d
:1007c00098030000a4030000af030000ba03000078
:1007d000c5030000d0030000db030000e6030000b7
:1007e000f1030000fc0300000704000012040000f5
:1007f0001c04000027040000320400003d04000037
:1008000047040000520400005c040000670400007c
:10081000710400007c0400008604000090040000c5
:100820009b040000a5040000af040000b904000010
:10083000c3040000ce040000d8040000e20400005d
:10084000eb040000f5040000ff04000009050000af
:10085000130500001c0500002605000030050000ff
:1008600039050000430500004c0500005605000056
:100870005f05000068050000710500007b050000b1
:10088000840500008d050000960500009f0500000e
:10089000a8050000b1050000b9050000c205000070
:1008a000cb050000d3050000dc050000e5050000d5
:1008b000ed050000f5050000fe050000060600003d
:1008c0000e060000160600001f06000027060000a6
:1008d0002f060000370600003e0600004606000016
:1008e0004e060000560600005d060000650600008a
:1008f0006c060000740600007b0600008306000002
:100900008a06000091060000980600009f0600007d
:10091000a6060000ad060000b4060000bb060000fd
:10092000c2060000c8060000cf060000d606000080
:10093000dc060000e3060000e9060000ef06000008
:10094000f5060000fc060000020700000807000092
:100950000e07000014070000190700001f07000021
:10096000250700002a0700003007000035070000b7
:100970003b07000040070000450700004b07000050
:1009800050070000550700005a0700005f070000ed
:1009900064070000680700006d0700007207000090
:1009a000760700007b0700007f0700008407000037
:1009b000880700008c0700009007000094070000e3
:1009c000980700009c070000a0070000a407000093
:1009d000a7070000ab070000ae070000b207000049
:1009e000b5070000b9070000bc070000bf07000002
:1009f000c2070000c5070000c8070000cb070000c1
:100a0000ce070000d0070000d3070000d607000083
:100a1000d8070000db070000dd070000df0700004b
:100a2000e1070000e3070000e5070000e70700001a
:100a3000e9070000eb070000ed070000ef070000ea
:100a4000f0070000f2070000f3070000f4070000c1
:100a5000f6070000f7070000f8070000f90700009c
:100a6000fa070000fb070000fc070000fc0700007d
:100a7000fd070000fe070000fe070000ff07000062
:100a8000ff070000ff070000ff070000ff0700004e
:020000040000fa
:100a90000600fa00200798000000eb00000f780025
:100aa000ae009000f00f200000806000100798005a
:100ab0002e0090004880de00e10f50000c00320054
:100ac000e20f5000140032000000e0001a003a006b
:100ad0001e0090008000400080342800008040000c
:100ae0009000780000802000008f40001c0037003c
:100af000f10f20001e009000008050008000400098
:100b000080342800008040009000780000802000a1
:100b1000008f4000120037001e009000800040004f
:100b20008034280000804000100078000180200000
:100b3000008f50000a003700f10f20001e009000c7
:100b40000080500080004000803428000080400079
:100b50001000780001802000008f5000000000008d
:100b60001e0078000080fa00000006000000fa0075
:100b700041e2a90041a2a9004822ef008540a90056
:100b80009540a9004382a9004362a9004342a800fe
:100b90004322a90042c2a9004302a80042e2a900e0
:100ba00042a2a80010128000c001b30010128800f9
:100bb000101280003000b300101288004422ef00b1
:100bc00041e2a8000080fa00000006000200fa00de
:100bd000000f7800cb02a9009e0078004112880027
:100be0000000000000128000610060000000e000d2
:100bf000fcff3200cb02a800401280000080fa0007
:100c0000000006000600fa000000eb001007980044
:100c10000000eb002007980040a7a900113a8000cf
:100c2000f00b2000008160006004200071052000ae
:100c30002374200080497800814978008249780037
:100c40004135800000fe2f00008060006000b3008e
:100c50004035880031368000f00f2e008080600023
:100c600000702000010070003036880031368000ae
:100c700000fe2f00008060000030a00030368800a9
:100c8000103a8000000178000260a000600420009b
:100c90007105200023742000804978008149780084
:100ca000824978002d83a800cf82a900c982a900bb
:100cb000caa2a800c8a2a900acff0700cb02a800e6
:100cc000c902a900cb22a800c922a9001e009000d9
:100cd0006fff0700204088002e0090006cff070087
:100ce000104088001e0090000000e80010079800e7
:100cf0009e009000f03f2000808f500002003600e0
:100d00000000eb00100798002e00900065004000e6
:100d100020079800ae009000f03f2000808f500028
:100d2000020036000000eb0020079800c02c2000d5
:100d30001050a2002140800000002300010070003c
:100d4000a2ff07001140800000002b00010070008e
:100d50009eff0700c02c20001050a200cb22a9004b
:100d60000000eb00000f78000200370000000000d8
:100d70001e0fe8001e007800e90f5000fbff360050
:080d8000cb22a800d1ff3700cf
:020000040000fa
:100d88000608000014000000000000000008000031
:100d98000400000000000000040800000200000039
:0c0da80002000000000400000000000039
:020000040000fa
:020000040001f9
:0457f800bbf90000f9
:020000040000fa
:020000040001f9
:0457fc007f3f0000eb
:00000001FF
