:020000040000FA
:020000000B28CB
:10000800DE00030E8312A0000A08A10043280C2872
:100018008312A3018301102883169F01851283127E
:1000280085128316811201128111011181100110AC
:10003800CD30831281008B018B160B118B17831621
:10004800051483120514043083169F0008308312A8
:100058009F001F148316051283120512A301831231
:1000680005161F149F149F183A283B283728051295
:100078001E08A2002208A300000033280B280B1D2D
:100088004628472856280310851E031403184D28B0
:100098005028831285165228831285120B118B164D
:1000A800CD30810021088A00200E8300DE0E5E0E0E
:0200B80009003D
:02400E009431EB
:00000001FF
