:020000040000fa
:080000000002040000000000f2
:020000040000fa
:04000800c80200002a
:020000040000fa
:04000c00c802000026
:020000040000fa
:04001000c802000022
:020000040000fa
:04001400c80200001e
:020000040000fa
:04001800c80200001a
:020000040000fa
:04001c00c802000016
:020000040000fa
:04002000c802000012
:020000040000fa
:04002400c80200000e
:020000040000fa
:04002800c80200000a
:020000040000fa
:04002c00c802000006
:020000040000fa
:04003000c802000002
:020000040000fa
:04003400c8020000fe
:020000040000fa
:04003800c8020000fa
:020000040000fa
:04003c00c8020000f6
:020000040000fa
:04004000c8020000f2
:020000040000fa
:04004400c8020000ee
:020000040000fa
:04004800c8020000ea
:020000040000fa
:04004c00c8020000e6
:020000040000fa
:04005000c8020000e2
:020000040000fa
:04005400c8020000de
:020000040000fa
:04005800c8020000da
:020000040000fa
:04005c00c8020000d6
:020000040000fa
:04006000c8020000d2
:020000040000fa
:04006400c8020000ce
:020000040000fa
:04006800c8020000ca
:020000040000fa
:04006c00c8020000c6
:020000040000fa
:04007000c8020000c2
:020000040000fa
:04007400c8020000be
:020000040000fa
:04007800c8020000ba
:020000040000fa
:04007c00c8020000b6
:020000040000fa
:04008000c8020000b2
:020000040000fa
:04008400c8020000ae
:020000040000fa
:04008800c8020000aa
:020000040000fa
:04008c00c8020000a6
:020000040000fa
:04009000c8020000a2
:020000040000fa
:04009400c80200009e
:020000040000fa
:04009800c80200009a
:020000040000fa
:04009c00c802000096
:020000040000fa
:0400a000c802000092
:020000040000fa
:0400a400c80200008e
:020000040000fa
:0400a800c80200008a
:020000040000fa
:0400ac00c802000086
:020000040000fa
:0400b000c802000082
:020000040000fa
:0400b400c80200007e
:020000040000fa
:0400b800c80200007a
:020000040000fa
:0400bc00c802000076
:020000040000fa
:0400c000c802000072
:020000040000fa
:0400c400c80200006e
:020000040000fa
:0400c800c80200006a
:020000040000fa
:0400cc00c802000066
:020000040000fa
:0400d000c802000062
:020000040000fa
:0400d400c80200005e
:020000040000fa
:0400d800c80200005a
:020000040000fa
:0400dc00c802000056
:020000040000fa
:0400e000c802000052
:020000040000fa
:0400e400c80200004e
:020000040000fa
:0400e800c80200004a
:020000040000fa
:0400ec00c802000046
:020000040000fa
:0400f000c802000042
:020000040000fa
:0400f400c80200003e
:020000040000fa
:0400f800c80200003a
:020000040000fa
:0400fc00c802000036
:020000040000fa
:04010000c802000031
:020000040000fa
:04010400c80200002d
:020000040000fa
:04010800c802000029
:020000040000fa
:04010c00c802000025
:020000040000fa
:04011000c802000021
:020000040000fa
:04011400c80200001d
:020000040000fa
:04011800c802000019
:020000040000fa
:04011c00c802000015
:020000040000fa
:04012000c802000011
:020000040000fa
:04012400c80200000d
:020000040000fa
:04012800c802000009
:020000040000fa
:04012c00c802000005
:020000040000fa
:04013000c802000001
:020000040000fa
:04013400c8020000fd
:020000040000fa
:04013800c8020000f9
:020000040000fa
:04013c00c8020000f5
:020000040000fa
:04014000c8020000f1
:020000040000fa
:04014400c8020000ed
:020000040000fa
:04014800c8020000e9
:020000040000fa
:04020800c802000028
:020000040000fa
:04020c00c802000024
:020000040000fa
:04021000c802000020
:020000040000fa
:04021400c80200001c
:020000040000fa
:04021800c802000018
:020000040000fa
:04021c00c802000014
:020000040000fa
:04022000c802000010
:020000040000fa
:04022400c80200000c
:020000040000fa
:04022800c802000008
:020000040000fa
:04022c00c802000004
:020000040000fa
:04023000c802000000
:020000040000fa
:04023400c8020000fc
:020000040000fa
:04023800c8020000f8
:020000040000fa
:04023c00c8020000f4
:020000040000fa
:04024000c8020000f0
:020000040000fa
:04024400c8020000ec
:020000040000fa
:04024800c8020000e8
:020000040000fa
:04024c00c8020000e4
:020000040000fa
:04025000c8020000e0
:020000040000fa
:04025400c8020000dc
:020000040000fa
:04025800c8020000d8
:020000040000fa
:04025c00c8020000d4
:020000040000fa
:04026000c8020000d0
:020000040000fa
:04026400c8020000cc
:020000040000fa
:04026800c8020000c8
:020000040000fa
:04026c00c8020000c4
:020000040000fa
:04027000c8020000c0
:020000040000fa
:04027400c8020000bc
:020000040000fa
:04027800c8020000b8
:020000040000fa
:04027c00c8020000b4
:020000040000fa
:04028000c8020000b0
:020000040000fa
:04028400c8020000ac
:020000040000fa
:04028800c8020000a8
:020000040000fa
:04028c00c8020000a4
:020000040000fa
:04029000c8020000a0
:020000040000fa
:04029400c80200009c
:020000040000fa
:04029800c802000098
:020000040000fa
:04029c00c802000094
:020000040000fa
:0402a000c802000090
:020000040000fa
:0402a400c80200008c
:020000040000fa
:0402a800c802000088
:020000040000fa
:0402ac00c802000084
:020000040000fa
:0402b000c802000080
:020000040000fa
:0402b400c80200007c
:020000040000fa
:0402b800c802000078
:020000040000fa
:0402bc00c802000074
:020000040000fa
:0402c000c802000070
:020000040000fa
:0402c400c80200006c
:020000040000fa
:0402c800c802000068
:020000040000fa
:0402cc00c802000064
:020000040000fa
:0402d000c802000060
:020000040000fa
:0402d400c80200005c
:020000040000fa
:0402d800c802000058
:020000040000fa
:0402dc00c802000054
:020000040000fa
:0402e000c802000050
:020000040000fa
:0402e400c80200004c
:020000040000fa
:0402e800c802000048
:020000040000fa
:0402ec00c802000044
:020000040000fa
:0402f000c802000040
:020000040000fa
:0402f400c80200003c
:020000040000fa
:0402f800c802000038
:020000040000fa
:0402fc00c802000034
:020000040000fa
:04030000c80200002f
:020000040000fa
:04030400c80200002b
:020000040000fa
:04030800c802000027
:020000040000fa
:04030c00c802000023
:020000040000fa
:04031000c80200001f
:020000040000fa
:04031400c80200001b
:020000040000fa
:04031800c802000017
:020000040000fa
:04031c00c802000013
:020000040000fa
:04032000c80200000f
:020000040000fa
:04032400c80200000b
:020000040000fa
:04032800c802000007
:020000040000fa
:04032c00c802000003
:020000040000fa
:04033000c8020000ff
:020000040000fa
:04033400c8020000fb
:020000040000fa
:04033800c8020000f7
:020000040000fa
:04033c00c8020000f3
:020000040000fa
:04034000c8020000ef
:020000040000fa
:04034400c8020000eb
:020000040000fa
:04034800c8020000e7
:020000040000fa
:100400002f8120000e7f22000e01880000000000d6
:10041000000020000000e000020032000001200087
:1004200020028800140007005b0007000000e000c5
:1004300003003a00604f2000010020000200370056
:100440000000200001002000810f70000100320038
:1004500014000700000020000000e000020032004d
:100460000000020000000000d204020000000000b2
:100470000040da000000fe004440a9000000200017
:100480000000e0000300320000002000a00188000e
:100490004440a800000006008a1f78008b1f7800e7
:1004a0000000060091018800800478000000eb0045
:1004b0001a003700e284440032a0b4009905ba0063
:1004c000e284440032a0b4009906ba00e2844400f9
:1004d00032a0b4000006eb00476fde00fd07b2005b
:1004e000636ce10003003a00ebff07000000eb0043
:1004f0000a003700606ce10004003a00005deb0088
:100500008b05e900fdff3e00040037006168e10053
:10051000010032000086eb000b00070019c7ba008b
:100520001905ba000e04e00003003a000a00e000da
:10053000e0ff3a0000000600fe07b2009e018800be
:100540008a047800f5ff3700395dba008b05e900b1
:100550000c003200295dba008b05e900080032006a
:100560000c00e00003003a00e284440032a0b40032
:10057000f5ff370019ddba008b05e900faff3a00f4
:100580008904e800e184440032a0b40000000600c1
:0c0590000040da000000fe000000050042
:020000040000fa
:10059c000000fa00c8a2a900caa2a900c882a9003a
:1005ac00ca82a900c822ef00ca22ef0000c8bf000f
:1005bc000040e80000e8b70000c8bf000080fb0066
:1005cc0050168800f9ff37000000fa0041e2a9003c
:1005dc0041a2a9004822ef008540a9009540a9003e
:1005ec004382a9004362a9004342a8004322a90008
:1005fc0042c2a8004302a90042a2a8001112800026
:10060c0030fe2f00008060000020a0001012880037
:10061c0011128000c0ff2f00008060000000a000bd
:10062c00101288004422ef00ca42a800c842a90058
:10063c0041e2a8000080fa00000006000200fa0067
:10064c00000f78009e007800411288000000000026
:10065c0000128000610060000000e000fcff32002e
:10066c00401280000080fa00000006000200fa0030
:10067c0040a7a900d4ff07000000eb00000f780092
:10068c00010037001e0fe8001e007800e10f40004b
:10069c00fcff3a00ca42a90010408000e7ff0700a7
:1006ac005040880020408000e4ff07006040880034
:1006bc0030408000e1ff0700704088000000eb0034
:1006cc00deff070080408800ca42a800402c2000b2
:1006dc001060a200e8ff37000000fa0061e2a900f8
:1006ec0061a2a9006822ef008820a9009820a90027
:1006fc006382a9006362a9006342a8006322a90077
:10070c0062c2a8006302a90062a2a80011138000b3
:10071c0030fe2f00008060000020a0001013880025
:10072c0011138000c0ff2f00008060000000a000ab
:10073c00101388004422ef00ca42a800c842a90046
:10074c0061e2a8000080fa00000006000200fa0036
:10075c00000f78009e007800411388000000000014
:10076c0000138000610060000000e000fcff32001c
:10077c00401380000080fa00000006000200fa001e
:10078c0040a7a900d4ff07000000eb00000f780081
:10079c00010037001e0fe8001e007800e10f40003a
:1007ac00fcff3a00ca42a90010408000e7ff070096
:1007bc005040880020408000e4ff07006040880023
:1007cc0030408000e1ff0700704088000000eb0023
:1007dc00deff070080408800ca42a800402c2000a1
:1007ec001060a200e8ff37000000fa000080fa0059
:1007fc00000006000600fa00100798002107980078
:10080c00cb02a9000000eb00000f78000c003700b1
:10081c001e0090000000e00002003d00cae2a800ab
:10082c0001003700cae2a9001e0090000000400041
:10083c0010079800cac2a800cac2a9001e0fe8007f
:10084c001e007800ef0f5000f1ff3400cb02a8001f
:10085c00cb02a9000000eb00000f78000c00370061
:10086c002e0090000000e00002003d00cae2a8004b
:10087c0001003700cae2a9002e00900000004000e1
:10088c0020079800cac2a800cac2a9001e0fe8001f
:10089c001e007800ef0f5000f1ff3400cb02a800cf
:1008ac00cb22a900cb22a8000080fa000000060091
:1008bc000400fa0000802000000f78000000eb001c
:1008cc0010079800cac2a800c8c2a900cae2a800b2
:1008dc00c8e2a900cb02a800c902a900cb22a8003b
:1008ec00c922a900ca62a800c862a900ca62a900ec
:1008fc00ca62a8000100370000000000f0ff2000d1
:10090c009e005000f0ff200000806000100798004f
:10091c009e00900000002b0081007000000023005e
:10092c001e007000b3ff07001e0fe800f0ff200050
:10093c009e007800808f5000efff36000000eb0027
:10094c00000f7800edff37000000fa003174200032
:10095c0082072000a3092000824878008348780091
:10096c0043e7b7002174200010c0b30062042000dc
:10097c00730520008248780083487800804878000e
:10098c00ca62a800c862a900ca62a90000000000df
:10099c00ca62a800fcff37000000fa00eaff07005b
:1009ac000000eb000080fa0000000600317420000b
:1009bc0082072000a3092000824878008348780031
:1009cc0043e7b7002174200010c0b300620420007c
:1009dc0073052000824878008348780080487800ae
:020000040000fa
:1009ec00020800000800000002000000ff00550093
:1009fc0055ffff00ffff00000a0800000800000080
:100a0c0000000000000800000200000000000000d0
:040a1c0000000000d6
:020000040000fa
:020000040001f9
:0457fc007f7f0000ab
:00000001FF
