:020000040000FA
:020000000B28CB
:10000800DE00030E8312A1000A08A20068280C284B
:100018008312A501A601A701A8018301132883164D
:100028009F01851283128512831605128312051209
:100038008316811201128111011181100110CD3036
:10004800831281008B018B160B118B1783160514F5
:1000580083120514043083169F00083083129F0012
:100068001F14A80183121F149F149F183C283D28B1
:1000780039281E08A3002308A800183028020318EE
:100088004628472857282808A30002300310A30D44
:10009800FF3E031D4A280310230DFF3AA40024083D
:1000A800A700A601652821302802031C5C285D28CA
:1000B80063282808A3002308A600A7016528A7012C
:1000C800A601662836280B280B1D6B286C28862865
:1000D8000B118B16CD3081000130A0002008A50738
:1000E80027082502031C79287A287C2885127D2870
:1000F800851626082502031C8228832885280512D0
:100108008628051622088A00210E8300DE0E5E0E60
:020118000900DC
:02400E009431EB
:00000001FF
